:020000040800F2
:10000000202F00206D01000875010008770100080D
:10001000790100087B0100087D0100080000000054
:100020000000000000000000000000007F01000848
:10003000810100080000000083010008850100081C
:100040008701000887010008870100088701000870
:100050008701000887010008870100088701000860
:100060008701000887010008870100088701000850
:100070008701000887010008870100088701000840
:100080008701000887010008870100088701000830
:100090008701000887010008870100088701000820
:1000A0008701000887010008870100088701000810
:1000B0008701000887010008870100088701000800
:1000C00087010008870100088701000887010008F0
:1000D00087010008C9060008870100088701000899
:1000E00087010008870100088701000800F002F876
:1000F00000F02CF80AA090E8000C82448344AAF196
:100100000107DA4501D100F021F8AFF2090EBAE893
:100110000F0013F0010F18BFFB1A43F0010318473B
:100120004814000058140000002300240025002675
:10013000103A28BF78C1FBD8520728BF30C148BF4A
:100140000B6070471FB51FBD10B510BD00F0F1F872
:100150001146FFF7F7FF00F0CFFE00F00FF903B4F0
:10016000FFF7F2FF03BC00F017F9000009488047D1
:1001700009480047FEE7FEE7FEE7FEE7FEE7FEE789
:10018000FEE7FEE7FEE7FEE704480549054A064BA1
:1001900070470000D9050008ED0000082029002064
:1001A000202F0020202B0020202B0020032A40F2AB
:1001B000308010F0030C00F0158011F8013BBCF109
:1001C000020F624498BF11F801CB00F8013B38BF21
:1001D00011F8013BA2F1040298BF00F801CB38BF2F
:1001E00000F8013B11F0030300F07180083AC0F001
:1001F000088051F8043B083A51F804CBA0E80810F5
:10020000F5E7121D5CBF51F8043B40F8043BAFF327
:100210000080D20724BF11F8013B11F801CB48BF81
:1002200011F8012B24BF00F8013B00F801CB48BFB7
:1002300000F8012B70474FF000020429C0F0128033
:1002400010F0030C00F01B80CCF1040CBCF1020F89
:1002500018BF00F8012BA8BF20F8022BA1EB0C015E
:1002600000F00DB85FEAC17C24BF00F8012B00F854
:10027000012B48BF00F8012B70474FF0000200B57A
:10028000134694469646203922BFA0E80C50A0E8B9
:100290000C50B1F12001BFF4F7AF090728BFA0E867
:1002A0000C5048BF0CC05DF804EB890028BF40F833
:1002B000042B08BF704748BF20F8022B11F0804F75
:1002C00018BF00F8012B704770477047704710B592
:1002D000203AC0F00B80B1E81850A0E81850B1E8FF
:1002E0001850A0E81850203ABFF4F5AF5FEA027C3E
:1002F00024BFB1E81850A0E8185044BF18C918C06E
:10030000BDE810405FEA827C24BF51F8043B40F80E
:10031000043B08BF7047D20728BF31F8023B48BFF3
:1003200011F8012B28BF20F8023B48BF00F8012B31
:100330007047754600F02CF8AE46050069465346F6
:1003400020F00700854618B020B5FFF71DFFBDE877
:1003500020404FF000064FF000074FF000084FF02C
:10036000000BAC46ACE8C009ACE8C009ACE8C00979
:10037000ACE8C00921F007018D46704710B504466E
:10038000AFF300802046BDE81040FFF7E8BE000054
:10039000004870470000002001491820ABBEFEE76E
:1003A0002600020070472DE9F043D1F808E00EF076
:1003B0000F0C5FEACE6244BF4A684CEA020C09881F
:1003C0000A0621D0036800224FF001094FF00F0800
:1003D000002616E009FA06F70F4210D008FA02F4D8
:1003E0000CFA02F5BEF1480F23EA040343EA0503C1
:1003F00004D0BEF1280F08BF476100E00761043256
:100400000136082EE6D10360B1F5807F38BFBDE824
:10041000F083436800224FF480794FF00F080026E4
:1004200018E009FA06F707EA0105BD4210D108FAFB
:1004300002F40CFA02F5BEF1480F23EA040343EA82
:10044000050304D0BEF1280F08BF476100E0076133
:1004500004320136082EE4D14360BDE8F083000089
:10046000B0B51A4A002800F440151FFA80FC134664
:1004700002F1180EB8BF7346B5F5401F1B68C0F3F4
:10048000034406D1146823F0706324F07064146090
:100490000EE0C50206D46FF00F0404EA50440CFAD3
:1004A00004F402E0032505FA04F4A34343F0706367
:1004B00031B16FF00F0101EA50410CFA01F10B4329
:1004C0000028B8BF72461360B0BD00BF04000140F1
:1004D000FEB50446154815460E46844207D014481A
:1004E000844206D01348844207D1042002E0102041
:1004F00000E00820012100F021F80F480121FFF75A
:10050000AFFF182003270290ADF800606E4620462A
:1005100001973146FFF747FF0420314602902046FD
:10052000ADF800500197FFF73EFFFEBD00100140FF
:10053000000C01400008014000043000044A00297A
:1005400011680CBF21EA000008431060704700BF2B
:100550001810024010B51B4C226802F00C031A4A16
:10056000082B0FD12368C3F3834303F1020C2368E4
:10057000DB0301D4154A03E023689B0348BF134AF9
:100580000CFB02F2026012492368C3F30313CB5C35
:10059000DA4042602368C3F30223CB5C22FA03F300
:1005A00083602368C3F3C223C95C0A4B22FA01F1BA
:1005B000C1602268C2F381329A5CB1FBF2F1016141
:1005C00010BD00BF0410024000127A0000093D0077
:1005D000561500085215000882B03648364A0168A0
:1005E00041F00101016041681140344A41600168F5
:1005F00011400160016821F480210160416821F40B
:10060000FE0141604FF41F018160002101910091C2
:10061000016841F480310160016801F4003100910A
:10062000019901310191009919B90199B1F5A06FB2
:10063000F2D10168890354BF002101210091009982
:10064000012930D11E490A6842F010020A600A6886
:1006500022F007020A600A6842F002020A6041685A
:10066000416041684160416841F480614160416896
:1006700021F47C114160416841F4E8114160016856
:1006800041F08071016001688901FCD5416821F069
:1006900003014160416841F002014160416801F09D
:1006A0000C010829FAD107484FF00061016002B03F
:1006B000704700BF001002400000FFF8FFFFF6FE89
:1006C0000020024008ED00E0B0B5E04C40F22551BA
:1006D000204600F032F890B1204600F0B7F8634DA4
:1006E00068700A48697800F05DFA012807D1012096
:1006F0002870312000F09CF9044800F0C4FA20462C
:1007000040F22551BDE8B04000F002B86428002056
:10071000090A012202FA01F1C94301807047828966
:10072000002942F4005308BF22F40053838170472C
:100730000088084018BF0120704701F01F02012304
:1007400003FA02F2C1F34213022B06D0012B14BFAD
:1007500000F1140300F10C0301E000F110031B8809
:10076000090A1A404FF0010318BF0122008803FA5A
:1007700001F1084018BF01201040704701F01F0C24
:10078000012303FA0CFCC1F342131421022B08BF0E
:100790001021012B08BF0C21002A42580CBF22EA6D
:1007A0000C0242EA0C0242507047000070B586B05D
:1007B0000446008A0D46C98801AE20F44050084323
:1007C0004EF6F3112082A0890840A98808432989A0
:1007D000084369890843A081A08AA98920F4407050
:1007E0000843A0823046FFF7B5FE984906F108009D
:1007F00002226FF063038C4208BF06F10C0019213E
:10080000042600684843B4F90C100029B8BF01223F
:1008100029689140B0FBF1F06421B0FBF1F202FBDA
:100820000300B4F90C30002BB8BF0326B0403230BF
:10083000002BB0FBF1F04FF00F01B8BF07210840CB
:1008400040EA0210208106B070BD00BF80886FF3BF
:100850005F2070476FF35F2181807047034900205C
:100860000A78012A04BF0870012070476000002048
:100870002DE9F04385B0304E8846044606F54057D2
:10088000B84213D02D4884421FD02D48844219D13C
:100890004FF4003001210125FFF750FE30460421BE
:1008A0000822FFF715FE4FF000091EE04FF48040CC
:1008B0000121FFF743FE30464FF400714FF4806290
:1008C000FFF706FE4FF000090EE04FF480400121D3
:1008D0004FF00109FFF732FE06F580604FF48061AA
:1008E0004FF40062FFF7F4FD002520460121FFF7D9
:1008F00016FF00204FF44021ADF81000CDF8048021
:10090000CDE9020101A92046FFF750FF204640F241
:1009100025510122FFF732FF0A48BC4201D12021B4
:1009200001600DB140210160B9F1000F01D08021BB
:10093000016005B0BDE8F0830008014000480040B8
:100940000044004004E100E02DE9F04385B00021BF
:10095000044600F098FB20B92D2000F069F884F0DF
:100960000044204600F0E4FB054680B200F01CFC89
:10097000014600260A20E8460DE0AAB2B7B20136C9
:10098000B2FBF0F202EB8203A5EB4303154643F002
:10099000300308F807302A04EFD1204600F064FD48
:1009A0001FFA86FC00234FEA5C020AE0FC4318F8B9
:1009B00007500133644418F8041008F8071008F8C9
:1009C00004509FB2BA42F1D8310403D1302101263C
:1009D0008DF80010B1B22E22741C002708F80120F7
:1009E0001249894613E04946013600F071FC05467C
:1009F00000F0BAFB00F13001B2B208F8021000F0CA
:100A0000EBFB0146284600F02FFD01340137062F8D
:100A1000E9D3A4B26D4604E015F8010B00F008F824
:100A2000013C002CF8D105B0BDE8F0830000204166
:100A300010B5064C01462046FFF70CFF20468021EA
:100A4000FFF776FE0028F9D010BD00BF0038014046
:100A500010B5044602E0FFF7EBFF013420780028D0
:100A6000F9D110BD2DE9F041124D0C46804600270A
:100A70004FF0FF3614E018F80700082100F078FA6C
:100A800086EA00666FF0070007E07100002E00F1B3
:100A90000100B8BF85EA46010E460028F5D10137AE
:100AA000A742E8DB3046202100F062FAC043BDE8EF
:100AB000F08100BFB71DC1042DE9F84F06466FF065
:100AC0000600002E64D01546002A61D00C4621B1E4
:100AD0000A2C05D26FF007005AE06FF0060057E0CD
:100AE0003078AA2852D1AA20287070786870B0781F
:100AF000A870F0780102A5F80310317941EA0027C7
:100B00006FF00900B9B2A5F8037001F10A02A24220
:100B10003ED80531A1423BD8701DC5F8050007F14C
:100B2000080080B2305C0090F81D80B216F800A07A
:100B3000781D80B216F800B0B81D80B216F800908B
:100B400007F109001FFA80F83046A8F10401FFF709
:100B500089FF4FEA0941009AC5F8090041EA0B6193
:100B600041EA0A211144814215D1A04516D216F856
:100B70000800BB2812D1BB20687307F10A0081B2BC
:100B80006FF00900A14208BF012001E06FF00800EA
:100B900001B0BDE8F08F6FF00200F9E76FF00400DC
:100BA000F6E70000B0B50446C08896280BD3652050
:100BB000FFF73EFFE08800F00FFBFFF7C5FE0020C7
:100BC00020606060B0BD2268052A28D8DFE802F006
:100BD000032B344412510020AA2918BFB0BD0A21AA
:100BE00001E060540131A029FBD1AA20A0720120AC
:100BF000E0803BE0421C2044E280817290B2A288F7
:100C0000411F891A042932D1011F04F10A004258F8
:100C100015BAFFF727FF8542D1D1052026E07820BD
:100C2000FFF706FFCBE7421C2044E280817290B2BE
:100C300003281CD1022019E0421C2044E28081726A
:100C400090B2052813D1607BA17B41EA00208D285A
:100C5000A080B4D2032009E0421C2044E2808172CB
:100C600090B2A1880531814201D10420206000208A
:100C7000B0BDBB29A3D1411C2044BB22E1808272BC
:100C800001202181B0BD0021C0E9001170470000A2
:100C90002DE9F0410C46014624B91AB16FF0080065
:100CA000BDE8F0816FF00300052988BFBDE8F08141
:100CB000DFE801F00312264F323FAB4C6068012899
:100CC00049D120461C21FFF7D8FAA8480221C4E9DF
:100CD00001100720BDE8F081A34D686802283AD1D1
:100CE0000B2A13D9608800F053F960800138B0F501
:100CF000205F5BD3072068606FF00D00BDE8F081D6
:100D0000994D6868032826D1012A2ED807206860EB
:100D10006FF00400BDE8F0819348416804291AD1BE
:100D20004188028B8A423BD1052141600920BDE800
:100D3000F0818D4C606805280DD1A06878B1218BB9
:100D400069B1FFF78FFE6169884208D106206060B3
:100D50000A20BDE8F0816FF00700BDE8F0810720B0
:100D600060606FF00600BDE8F081A86878B3237872
:100D70006778298A47EA03238B422ED1A2F1020821
:100D8000298B6F881FFA88F3CE18BE4298BFB6F53C
:100D9000245F56D9072068604FF0FF30BDE8F0812E
:100DA000072141606FF00A00BDE8F081A08800F0E3
:100DB000EFF8411EA080962915D30721696000F045
:100DC0000BFAFFF7C1FD6FF00C00BDE8F0810720C2
:100DD00068606FF00100BDE8F081072068606FF087
:100DE0000500BDE8F081E08800F0D2F8E080A1883D
:100DF00062880A44013A92FBF1F189B288421AD121
:100E0000A06800F0C7F8A060218829806188698007
:100E1000A1886861A9810021E08829832982E8816D
:100E2000A86818B14FF42051FFF705FA0320686055
:100E30000820BDE8F081072068606FF00B00BDE876
:100E4000F081033AAF8992B2BA42A3D20844A11CFE
:100E50001A46FFF7ABF9288B00EB0801298389B20A
:100E6000288A013028826A88914203D2E98980B2B7
:100E7000884201D3042068600B20BDE8F08100BFE8
:100E8000B0B5AAB00020ADF8A4002890CDE92600A6
:100E90003220FFF7CDFD17486D46048900F10A01A5
:100EA00028462246FFF782F926AA28462146FFF760
:100EB00003FE012817D13320FFF7BAFD9DF89A00F1
:100EC00018B900F045F89DF89A00BDF89B20DDF8B0
:100ED0009D10FFF7DDFEB0F1FF3F04DD3420FFF78A
:100EE000A7FD002004E000F05FF9FFF72DFDFF20D3
:100EF0002AB0B0BD642800200A484FF41651FFF70D
:100F0000B7FC09A0FFF7A4FD0CA4FFF7A7FC01287C
:100F1000FBD1FFF7B5FF0028F7D12046FFF798FD7A
:100F2000F3E700BF003801400A2048656C6C6F2071
:100F30002D205374617274202D200A0048616E6464
:100F40006C65204F74612073756363657373000073
:100F5000054806490122C0E90121002101834161C0
:100F600001828181418070470429002062000020B5
:100F70004A1E00214FF0010C531C04BF0846704765
:100F8000C3071CBF0CFA02F31943013A4008F3E708
:100F900040BA704700BA704790EA010F48BF81F02D
:100FA000004100F16882421A3CBF801A89184FEA5A
:100FB000D052A2EBD1534FF07F4C1CEA410F18BF27
:100FC0009CEA026F00F03B804FF0004C4CEA00209E
:100FD0004CEA012121FA03FC10EB0C0C1ED202F1A9
:100FE000FF325FEA1C2040EBC25038BF70471CF054
:100FF0007F0F4FEA400C18BFBCF17F4F38BF7047DE
:10100000C3F12003994008BF20F00100BCF17F4FDD
:1010100038BF7047A0F1C04000F021BA4FEA3C0051
:10102000000A40EBC25028BF1CF0FF0F4FEA400CF3
:10103000E6D018BFBCF17F4F38BF7047EAE79CEAA3
:10104000026F05D010EA5C0F08BF00F00040704747
:1010500010B500F0BEF900BF64FBBE3E10B500F055
:1010600033F80CBF0120002010BD10B500F02CF8A3
:1010700014BF0120002010BD10B500F0C1F88CBFD6
:101080000120002010BD10B500F0BAF82CBF0120DF
:10109000002010BD10B500F0E7F894BF012000203B
:1010A00010BD10B500F0E0F834BF0120002010BDE5
:1010B000401058BFC0F14040491058BFC1F14041F5
:1010C0008142EFF30080704750EA010C00F1138079
:1010D0001CF5000F58BFBCF5000F01D488427047C3
:1010E00007D710F5000F58BF11F5000F15D488422F
:1010F0007047894270471CF5000F04D5BCF5000FFE
:10110000F7D5814270474FF0807C1CEB400F38BF11
:101110001CEB410F01D28142704710B500F059F924
:10112000922449004FF000504FF08051FFF7C0BFAC
:1011300041000B0ED3F19E0208D950F400034FEA90
:10114000032323FA02F048BF4042704710B500F075
:1011500040F900BF49922480002070476FF00042A0
:1011600082EA200070470000C10DD1F19E0206DB2B
:101170004FEA002343F0004323FA02F07047004295
:1011800007D54FEA4001B1F1FE4F02D24FF0000007
:10119000704710B500F01DF9499224800020704777
:1011A0006FEA20007047000010F0004148BF404245
:1011B000B0FA80F310FA03F2C3F19D030BD051EAA9
:1011C000C35101EB1220530638BF704700F10100F4
:1011D00008BF20F001007047B0FA80F310FA03F264
:1011E000C3F19D030AD0D90501EB1220530638BF85
:1011F000704700F1010008BF20F0010070470000B7
:1012000050EA010C00F113801CF5000F58BFBCF52B
:10121000000F01D48842704707D710F5000F58BF60
:1012200011F5000F15D488427047894270471CF5AC
:10123000000F04D5BCF5000FF7D5814270474FF081
:10124000807C1CEB400F38BF1CEB410F01D2814268
:10125000704710B500F0BDF8922449004FF080505F
:101260004FF00051FFF724BF50EA010C00F113804A
:101270001CF5000F58BFBCF5000F01D48842704721
:1012800007D710F5000F58BF11F5000F15D488428D
:101290007047894270471CF5000F04D5BCF5000F5C
:1012A000F7D5814270474FF0807C1CEB400F38BF70
:1012B0001CEB410F01D28142704710B500F089F854
:1012C000922449004FF000504FF08051FFF7F0BEDC
:1012D0004FF47F0C1CEAD0121EBF1CEAD11392EA15
:1012E0000C0F93EA0C0F00F0478090EA010F48BF03
:1012F00042F480724FF0004C4CEA00204CEA01218D
:1013000002EB0302A0FB0113A2F50002002918BFA3
:1013100043F001035B0028BF4FEA330342EB224254
:101320005FEA132C4CEBC2502EBFBCEB436FB2F5FF
:101330007C0F70474FEA036CBCF1004F08BF20F0F0
:101340000100B2F57C0F38BF70470BD582F0FF0269
:1013500012F5803FC8BF704700F1C040D8BF00F011
:101360000040704700F5000C5FEA4C0C48BF704726
:10137000B0F1C04000F073B80CEAD11390EA010F4D
:1013800048BF42F48072624538BF634504D280EAA8
:10139000010000F00040704710B500F01AF800BFDF
:1013A0008900013E00F007B800F009B85FEA410C7F
:1013B0005FEA1C6C08D080EA010000F050B85FEAD8
:1013C000400C5FEA1C6CF6D14FF00040A0F58000A5
:1013D00070470EF1020E2EF0030E5EF8044B24420D
:1013E00004D44FEA4102B2F17F4F11D84FEA4003D3
:1013F000B3F17F4F0CD80ED14FEAD07C0CEB4C0CE4
:101400000CF1020CB2F17F4F08BF4CEBD17C04E031
:101410004FF0080C01E04FEAD17C0CEB4C0324FAAE
:1014200003F404F00704B4F1040C06D20EEB840CB0
:10143000BDE810404CF0010C6047DFE80CF00708F5
:1014400002024FF00040A0F5800010BD08464200A7
:1014500018BFD2F1807288BF00F0004010BDFF219C
:1014600041EAD050C005704790EA010F48BF81F0B3
:1014700000413FF598AD421A04D882F00042A0EB3B
:10148000020011444FEAD052A2EBD1534FF07F4CEF
:101490001CEA410F18BF9CEA026F4AD04FF0004C83
:1014A0004CEA00204CEA012121FA03FCB0EB0C0CC1
:1014B0000FD412F0FE0F36D05FEA4C001DD500129B
:1014C00040EBC25038BF70471CF03F0F18BF704749
:1014D0000BE05FEA1C20A2F1010240EBC25038BFD2
:1014E00070471CF07F0F18BF7047C3F1200399406D
:1014F00014BF401E20F0010070474FEA12238008FD
:1015000008BF7047B0FA80FCA2EB0C02CCF1280CAB
:1015100060FA0CF093EA122F04BF00EBC250704740
:101520004FEAC3707047130A5FEADC1008BF7047C8
:10153000F6E79CEA026F04D010EA5C0F08BF0020B7
:10154000704710B5FFF745FF40DFF63E81F00040E1
:1015500070470204060800000000010203040102B3
:1015600003040607080900007815000800000020A1
:08157000202F000028010008F3
:04000005080000ED02
:00000001FF
